{
  "_format": "hh-sol-artifact-1",
  "contractName": "Telehash",
  "sourceName": "contracts/Telehash.sol",
  "abi": [
    {
      "anonymous": false,
      "inputs": [
        {
          "indexed": true,
          "internalType": "address",
          "name": "sat",
          "type": "address"
        },
        {
          "indexed": false,
          "internalType": "string",
          "name": "command",
          "type": "string"
        }
      ],
      "name": "CommandLogged",
      "type": "event"
    },
    {
      "anonymous": false,
      "inputs": [
        {
          "indexed": true,
          "internalType": "address",
          "name": "sat",
          "type": "address"
        },
        {
          "indexed": false,
          "internalType": "string",
          "name": "hash",
          "type": "string"
        },
        {
          "indexed": false,
          "internalType": "string",
          "name": "cid",
          "type": "string"
        }
      ],
      "name": "DataUploaded",
      "type": "event"
    },
    {
      "anonymous": false,
      "inputs": [
        {
          "indexed": true,
          "internalType": "address",
          "name": "sat",
          "type": "address"
        },
        {
          "indexed": false,
          "internalType": "string",
          "name": "name",
          "type": "string"
        }
      ],
      "name": "SatelliteRegistered",
      "type": "event"
    },
    {
      "inputs": [],
      "name": "author",
      "outputs": [
        {
          "internalType": "string",
          "name": "",
          "type": "string"
        }
      ],
      "stateMutability": "view",
      "type": "function"
    },
    {
      "inputs": [
        {
          "internalType": "address",
          "name": "",
          "type": "address"
        },
        {
          "internalType": "uint256",
          "name": "",
          "type": "uint256"
        }
      ],
      "name": "commandLogs",
      "outputs": [
        {
          "internalType": "string",
          "name": "command",
          "type": "string"
        },
        {
          "internalType": "uint256",
          "name": "timestamp",
          "type": "uint256"
        }
      ],
      "stateMutability": "view",
      "type": "function"
    },
    {
      "inputs": [
        {
          "internalType": "address",
          "name": "",
          "type": "address"
        },
        {
          "internalType": "uint256",
          "name": "",
          "type": "uint256"
        }
      ],
      "name": "dataLogs",
      "outputs": [
        {
          "internalType": "string",
          "name": "dataHash",
          "type": "string"
        },
        {
          "internalType": "string",
          "name": "greenfieldCID",
          "type": "string"
        },
        {
          "internalType": "string",
          "name": "metadata",
          "type": "string"
        },
        {
          "internalType": "uint256",
          "name": "timestamp",
          "type": "uint256"
        }
      ],
      "stateMutability": "view",
      "type": "function"
    },
    {
      "inputs": [],
      "name": "getAuthor",
      "outputs": [
        {
          "internalType": "string",
          "name": "",
          "type": "string"
        }
      ],
      "stateMutability": "pure",
      "type": "function"
    },
    {
      "inputs": [
        {
          "internalType": "address",
          "name": "sat",
          "type": "address"
        }
      ],
      "name": "getCommandLogs",
      "outputs": [
        {
          "components": [
            {
              "internalType": "string",
              "name": "command",
              "type": "string"
            },
            {
              "internalType": "uint256",
              "name": "timestamp",
              "type": "uint256"
            }
          ],
          "internalType": "struct Telehash.CommandLog[]",
          "name": "",
          "type": "tuple[]"
        }
      ],
      "stateMutability": "view",
      "type": "function"
    },
    {
      "inputs": [
        {
          "internalType": "address",
          "name": "sat",
          "type": "address"
        }
      ],
      "name": "getDataLogs",
      "outputs": [
        {
          "components": [
            {
              "internalType": "string",
              "name": "dataHash",
              "type": "string"
            },
            {
              "internalType": "string",
              "name": "greenfieldCID",
              "type": "string"
            },
            {
              "internalType": "string",
              "name": "metadata",
              "type": "string"
            },
            {
              "internalType": "uint256",
              "name": "timestamp",
              "type": "uint256"
            }
          ],
          "internalType": "struct Telehash.DataEvent[]",
          "name": "",
          "type": "tuple[]"
        }
      ],
      "stateMutability": "view",
      "type": "function"
    },
    {
      "inputs": [
        {
          "internalType": "string",
          "name": "command",
          "type": "string"
        }
      ],
      "name": "logCommand",
      "outputs": [],
      "stateMutability": "nonpayable",
      "type": "function"
    },
    {
      "inputs": [
        {
          "internalType": "string",
          "name": "name",
          "type": "string"
        }
      ],
      "name": "registerSatellite",
      "outputs": [],
      "stateMutability": "nonpayable",
      "type": "function"
    },
    {
      "inputs": [
        {
          "internalType": "address",
          "name": "",
          "type": "address"
        }
      ],
      "name": "satellites",
      "outputs": [
        {
          "internalType": "string",
          "name": "",
          "type": "string"
        }
      ],
      "stateMutability": "view",
      "type": "function"
    },
    {
      "inputs": [
        {
          "internalType": "string",
          "name": "dataHash",
          "type": "string"
        },
        {
          "internalType": "string",
          "name": "cid",
          "type": "string"
        },
        {
          "internalType": "string",
          "name": "metadata",
          "type": "string"
        }
      ],
      "name": "uploadData",
      "outputs": [],
      "stateMutability": "nonpayable",
      "type": "function"
    }
  ],
  "bytecode": "0x608060405234801561001057600080fd5b50611b1e806100206000396000f3fe608060405234801561001057600080fd5b506004361061009e5760003560e01c8063765e107911610066578063765e10791461016e578063a5faa1251461019e578063a6c3e6b9146101bc578063dedbda97146101da578063fd01da321461020b5761009e565b8063084171c1146100a3578063099ad00c146100d65780631e11bea1146100f257806343314c841461012257806375700b5e14610152575b600080fd5b6100bd60048036038101906100b89190610fa0565b610227565b6040516100cd949392919061107f565b60405180910390f35b6100f060048036038101906100eb919061113e565b61040c565b005b61010c6004803603810190610107919061118b565b6105d0565b6040516101199190611310565b60405180910390f35b61013c6004803603810190610137919061118b565b61070a565b6040516101499190611465565b60405180910390f35b61016c60048036038101906101679190611487565b610968565b005b6101886004803603810190610183919061118b565b610bf4565b604051610195919061153b565b60405180910390f35b6101a6610c94565b6040516101b3919061153b565b60405180910390f35b6101c4610cd1565b6040516101d1919061153b565b60405180910390f35b6101f460048036038101906101ef9190610fa0565b610d0a565b60405161020292919061155d565b60405180910390f35b6102256004803603810190610220919061113e565b610dd3565b005b6001602052816000526040600020818154811061024357600080fd5b906000526020600020906004020160009150915050806000018054610267906115bc565b80601f0160208091040260200160405190810160405280929190818152602001828054610293906115bc565b80156102e05780601f106102b5576101008083540402835291602001916102e0565b820191906000526020600020905b8154815290600101906020018083116102c357829003601f168201915b5050505050908060010180546102f5906115bc565b80601f0160208091040260200160405190810160405280929190818152602001828054610321906115bc565b801561036e5780601f106103435761010080835404028352916020019161036e565b820191906000526020600020905b81548152906001019060200180831161035157829003601f168201915b505050505090806002018054610383906115bc565b80601f01602080910402602001604051908101604052809291908181526020018280546103af906115bc565b80156103fc5780601f106103d1576101008083540402835291602001916103fc565b820191906000526020600020905b8154815290600101906020018083116103df57829003601f168201915b5050505050908060030154905084565b60008060003373ffffffffffffffffffffffffffffffffffffffff1673ffffffffffffffffffffffffffffffffffffffff1681526020019081526020016000208054610457906115bc565b905011610499576040517f08c379a000000000000000000000000000000000000000000000000000000000815260040161049090611639565b60405180910390fd5b600260003373ffffffffffffffffffffffffffffffffffffffff1673ffffffffffffffffffffffffffffffffffffffff168152602001908152602001600020604051806040016040528084848080601f016020809104026020016040519081016040528093929190818152602001838380828437600081840152601f19601f820116905080830192505050505050508152602001428152509080600181540180825580915050600190039060005260206000209060020201600090919091909150600082015181600001908161056f9190611834565b506020820151816001015550503373ffffffffffffffffffffffffffffffffffffffff167f947ef5b8551a4eafbb82c23185cab9c13f147328fb09cb5a77be6c350dc06f4683836040516105c4929190611942565b60405180910390a25050565b6060600260008373ffffffffffffffffffffffffffffffffffffffff1673ffffffffffffffffffffffffffffffffffffffff168152602001908152602001600020805480602002602001604051908101604052809291908181526020016000905b828210156106ff5783829060005260206000209060020201604051806040016040529081600082018054610664906115bc565b80601f0160208091040260200160405190810160405280929190818152602001828054610690906115bc565b80156106dd5780601f106106b2576101008083540402835291602001916106dd565b820191906000526020600020905b8154815290600101906020018083116106c057829003601f168201915b5050505050815260200160018201548152505081526020019060010190610631565b505050509050919050565b6060600160008373ffffffffffffffffffffffffffffffffffffffff1673ffffffffffffffffffffffffffffffffffffffff168152602001908152602001600020805480602002602001604051908101604052809291908181526020016000905b8282101561095d578382906000526020600020906004020160405180608001604052908160008201805461079e906115bc565b80601f01602080910402602001604051908101604052809291908181526020018280546107ca906115bc565b80156108175780601f106107ec57610100808354040283529160200191610817565b820191906000526020600020905b8154815290600101906020018083116107fa57829003601f168201915b50505050508152602001600182018054610830906115bc565b80601f016020809104026020016040519081016040528092919081815260200182805461085c906115bc565b80156108a95780601f1061087e576101008083540402835291602001916108a9565b820191906000526020600020905b81548152906001019060200180831161088c57829003601f168201915b505050505081526020016002820180546108c2906115bc565b80601f01602080910402602001604051908101604052809291908181526020018280546108ee906115bc565b801561093b5780601f106109105761010080835404028352916020019161093b565b820191906000526020600020905b81548152906001019060200180831161091e57829003601f168201915b505050505081526020016003820154815250508152602001906001019061076b565b505050509050919050565b60008060003373ffffffffffffffffffffffffffffffffffffffff1673ffffffffffffffffffffffffffffffffffffffff16815260200190815260200160002080546109b3906115bc565b9050116109f5576040517f08c379a00000000000000000000000000000000000000000000000000000000081526004016109ec90611639565b60405180910390fd5b600160003373ffffffffffffffffffffffffffffffffffffffff1673ffffffffffffffffffffffffffffffffffffffff168152602001908152602001600020604051806080016040528088888080601f016020809104026020016040519081016040528093929190818152602001838380828437600081840152601f19601f82011690508083019250505050505050815260200186868080601f016020809104026020016040519081016040528093929190818152602001838380828437600081840152601f19601f82011690508083019250505050505050815260200184848080601f016020809104026020016040519081016040528093929190818152602001838380828437600081840152601f19601f8201169050808301925050505050505081526020014281525090806001815401808255809150506001900390600052602060002090600402016000909190919091506000820151816000019081610b5f9190611834565b506020820151816001019081610b759190611834565b506040820151816002019081610b8b9190611834565b506060820151816003015550503373ffffffffffffffffffffffffffffffffffffffff167fb9b4203c35887dff3412febb9ecf6bc9fadb71e7096bb11685b0a91f4fcb85de87878787604051610be49493929190611966565b60405180910390a2505050505050565b60006020528060005260406000206000915090508054610c13906115bc565b80601f0160208091040260200160405190810160405280929190818152602001828054610c3f906115bc565b8015610c8c5780601f10610c6157610100808354040283529160200191610c8c565b820191906000526020600020905b815481529060010190602001808311610c6f57829003601f168201915b505050505081565b60606040518060400160405280600d81526020017f54686f6d6173204d617274696e00000000000000000000000000000000000000815250905090565b6040518060400160405280600d81526020017f54686f6d6173204d617274696e0000000000000000000000000000000000000081525081565b60026020528160005260406000208181548110610d2657600080fd5b906000526020600020906002020160009150915050806000018054610d4a906115bc565b80601f0160208091040260200160405190810160405280929190818152602001828054610d76906115bc565b8015610dc35780601f10610d9857610100808354040283529160200191610dc3565b820191906000526020600020905b815481529060010190602001808311610da657829003601f168201915b5050505050908060010154905082565b60008060003373ffffffffffffffffffffffffffffffffffffffff1673ffffffffffffffffffffffffffffffffffffffff1681526020019081526020016000208054610e1e906115bc565b905014610e60576040517f08c379a0000000000000000000000000000000000000000000000000000000008152600401610e57906119ed565b60405180910390fd5b81816000803373ffffffffffffffffffffffffffffffffffffffff1673ffffffffffffffffffffffffffffffffffffffff1681526020019081526020016000209182610ead929190611a18565b503373ffffffffffffffffffffffffffffffffffffffff167f8024d22f9ddaffd7110d2d61f2c5df3b0e1a3c90b8830c9b3894038c2a9c323c8383604051610ef6929190611942565b60405180910390a25050565b600080fd5b600080fd5b600073ffffffffffffffffffffffffffffffffffffffff82169050919050565b6000610f3782610f0c565b9050919050565b610f4781610f2c565b8114610f5257600080fd5b50565b600081359050610f6481610f3e565b92915050565b6000819050919050565b610f7d81610f6a565b8114610f8857600080fd5b50565b600081359050610f9a81610f74565b92915050565b60008060408385031215610fb757610fb6610f02565b5b6000610fc585828601610f55565b9250506020610fd685828601610f8b565b9150509250929050565b600081519050919050565b600082825260208201905092915050565b60005b8381101561101a578082015181840152602081019050610fff565b60008484015250505050565b6000601f19601f8301169050919050565b600061104282610fe0565b61104c8185610feb565b935061105c818560208601610ffc565b61106581611026565b840191505092915050565b61107981610f6a565b82525050565b600060808201905081810360008301526110998187611037565b905081810360208301526110ad8186611037565b905081810360408301526110c18185611037565b90506110d06060830184611070565b95945050505050565b600080fd5b600080fd5b600080fd5b60008083601f8401126110fe576110fd6110d9565b5b8235905067ffffffffffffffff81111561111b5761111a6110de565b5b602083019150836001820283011115611137576111366110e3565b5b9250929050565b6000806020838503121561115557611154610f02565b5b600083013567ffffffffffffffff81111561117357611172610f07565b5b61117f858286016110e8565b92509250509250929050565b6000602082840312156111a1576111a0610f02565b5b60006111af84828501610f55565b91505092915050565b600081519050919050565b600082825260208201905092915050565b6000819050602082019050919050565b600082825260208201905092915050565b600061120082610fe0565b61120a81856111e4565b935061121a818560208601610ffc565b61122381611026565b840191505092915050565b61123781610f6a565b82525050565b6000604083016000830151848203600086015261125a82826111f5565b915050602083015161126f602086018261122e565b508091505092915050565b6000611286838361123d565b905092915050565b6000602082019050919050565b60006112a6826111b8565b6112b081856111c3565b9350836020820285016112c2856111d4565b8060005b858110156112fe57848403895281516112df858261127a565b94506112ea8361128e565b925060208a019950506001810190506112c6565b50829750879550505050505092915050565b6000602082019050818103600083015261132a818461129b565b905092915050565b600081519050919050565b600082825260208201905092915050565b6000819050602082019050919050565b6000608083016000830151848203600086015261137b82826111f5565b9150506020830151848203602086015261139582826111f5565b915050604083015184820360408601526113af82826111f5565b91505060608301516113c4606086018261122e565b508091505092915050565b60006113db838361135e565b905092915050565b6000602082019050919050565b60006113fb82611332565b611405818561133d565b9350836020820285016114178561134e565b8060005b85811015611453578484038952815161143485826113cf565b945061143f836113e3565b925060208a0199505060018101905061141b565b50829750879550505050505092915050565b6000602082019050818103600083015261147f81846113f0565b905092915050565b600080600080600080606087890312156114a4576114a3610f02565b5b600087013567ffffffffffffffff8111156114c2576114c1610f07565b5b6114ce89828a016110e8565b9650965050602087013567ffffffffffffffff8111156114f1576114f0610f07565b5b6114fd89828a016110e8565b9450945050604087013567ffffffffffffffff8111156115205761151f610f07565b5b61152c89828a016110e8565b92509250509295509295509295565b600060208201905081810360008301526115558184611037565b905092915050565b600060408201905081810360008301526115778185611037565b90506115866020830184611070565b9392505050565b7f4e487b7100000000000000000000000000000000000000000000000000000000600052602260045260246000fd5b600060028204905060018216806115d457607f821691505b6020821081036115e7576115e661158d565b5b50919050565b7f536174656c6c697465206e6f7420726567697374657265640000000000000000600082015250565b6000611623601883610feb565b915061162e826115ed565b602082019050919050565b6000602082019050818103600083015261165281611616565b9050919050565b7f4e487b7100000000000000000000000000000000000000000000000000000000600052604160045260246000fd5b60008190508160005260206000209050919050565b60006020601f8301049050919050565b600082821b905092915050565b6000600883026116ea7fffffffffffffffffffffffffffffffffffffffffffffffffffffffffffffffff826116ad565b6116f486836116ad565b95508019841693508086168417925050509392505050565b6000819050919050565b600061173161172c61172784610f6a565b61170c565b610f6a565b9050919050565b6000819050919050565b61174b83611716565b61175f61175782611738565b8484546116ba565b825550505050565b600090565b611774611767565b61177f818484611742565b505050565b5b818110156117a35761179860008261176c565b600181019050611785565b5050565b601f8211156117e8576117b981611688565b6117c28461169d565b810160208510156117d1578190505b6117e56117dd8561169d565b830182611784565b50505b505050565b600082821c905092915050565b600061180b600019846008026117ed565b1980831691505092915050565b600061182483836117fa565b9150826002028217905092915050565b61183d82610fe0565b67ffffffffffffffff81111561185657611855611659565b5b61186082546115bc565b61186b8282856117a7565b600060209050601f83116001811461189e576000841561188c578287015190505b6118968582611818565b8655506118fe565b601f1984166118ac86611688565b60005b828110156118d4578489015182556001820191506020850194506020810190506118af565b868310156118f157848901516118ed601f8916826117fa565b8355505b6001600288020188555050505b505050505050565b82818337600083830152505050565b60006119218385610feb565b935061192e838584611906565b61193783611026565b840190509392505050565b6000602082019050818103600083015261195d818486611915565b90509392505050565b60006040820190508181036000830152611981818688611915565b90508181036020830152611996818486611915565b905095945050505050565b7f416c726561647920726567697374657265640000000000000000000000000000600082015250565b60006119d7601283610feb565b91506119e2826119a1565b602082019050919050565b60006020820190508181036000830152611a06816119ca565b9050919050565b600082905092915050565b611a228383611a0d565b67ffffffffffffffff811115611a3b57611a3a611659565b5b611a4582546115bc565b611a508282856117a7565b6000601f831160018114611a7f5760008415611a6d578287013590505b611a778582611818565b865550611adf565b601f198416611a8d86611688565b60005b82811015611ab557848901358255600182019150602085019450602081019050611a90565b86831015611ad25784890135611ace601f8916826117fa565b8355505b6001600288020188555050505b5050505050505056fea2646970667358221220147abcec787171fc5938b1a2b186b44a09d263a79c0cef9e40ce79366adf74c664736f6c63430008130033",
  "linkReferences": {},
  "deployedLinkReferences": {}
}